:020000040800F2
:100000007804002045010008511E0008190E000860
:10001000C11D0008250A0008112700080000000083
:100020000000000000000000000000008D24000817
:10003000850A0008000000006D210008AD260008B8
:100040005F0100085F0100085F0100085F01000810
:100050005F0100085F010008DB0A00085F0100087B
:100060005F0100085F0100085F0100085F010008F0
:100070005F0100085F0100085F0100085F010008E0
:100080005F0100085F0100085F0100085F010008D0
:100090005F0100085F0100085F0100085F010008C0
:1000A0005F0100085F0100085F0100085F010008B0
:1000B0005F0100085F0100085F0100085F010008A0
:1000C0005F0100085F0100085F0100085F01000890
:1000D0005F0100085F0100085F0100085F01000880
:1000E0005F0100085F0100085F0100085F01000870
:1000F0005F0100085F0100085F0100085F01000860
:100100005F0100085F0100085F0100085F0100084F
:100110005F0100085F0100085F0100085F0100083F
:100120005F0100085F0100085F0100085F0100082F
:10013000DFF80CD000F03EFB00480047DD3000083F
:10014000780400200648804706480047FEE7FEE79F
:10015000FEE7FEE7FEE7FEE7FEE7FEE7FEE7FEE777
:10016000B126000831010008D2B201E000F8012BED
:10017000491EFBD270470022F6E710B513460A4627
:1001800004461946FFF7F0FF204610BD2DE9FE4F4B
:10019000804681EA0300C00F0C46009021F0004128
:1001A00023F00045B8EB0200A94105D240462146A4
:1001B00090461C460B46024623F00040104347D0B1
:1001C000270DC7F30A00C3F30A510290401A0190A9
:1001D00040286BDAC3F3130040F4801B009892466A
:1001E00020B10023D2EB030A63EB0B0B01985946B5
:1001F000C0F14002504600F088F906460D465046D0
:100200005946019A00F090F910EB08006141002472
:1002100087EA115284EAE7731A4340D0009A62B326
:10022000019A012A4FEA075215DC001B61EB02011B
:100230004FF0004202EA0752CDE90042001C41F5AE
:10024000801132462B4600F0C7F903B0BDE8F08FAD
:1002500040462146F9E7001B61EB0201001C41F515
:10026000801300185B412018A2F5001747EB03012B
:1002700040EAD570B6196D4111E06D084FEA3606B7
:1002800045EAC0754FEA0752001B61EB0201001CF2
:1002900041F5801149084FEA3000001951413246BA
:1002A0002B4603B0BDE8F04F00F087B9009801225B
:1002B00040000023D0EB020263EBE073009821467C
:1002C0004FEAE074B8EB000061EB0401E9E783F06A
:1002D00000435BE781F0004158E72DE9FE4F81EADA
:1002E000030404F0004421F0004100944FF0000B9F
:1002F00023F0004350EA01045ED052EA03045BD0CD
:10030000C3F30A54C1F30A552C44A4F2F334019404
:10031000A0FB0254C1F3130141F48011C3F3130392
:1003200043F4801301FB024400FB034E840A970A46
:1003300044EA815447EA8357A4FB076802958D0A73
:1003400005FB07854FEA932C04FB0C542705029DFF
:100350004FEA065847EA1637B5EB08056EEB070C6F
:10036000870E920E47EA811742EA8312A7FB020129
:10037000B6EB0B0164EB00042B0D43EA0C335E1863
:1003800044EB1C50DA465146E7FB0201C5F3130467
:100390004FEA0B3343EA14534FEA0432019C43EA19
:1003A0000603A4F10C040294009CCDE900B400F013
:1003B00013F903B0BDE8F08F00200146F9E70EB550
:1003C00040F2334102910021CDE900110A460B466B
:1003D00000F002F903B000BD00F0004230F0004030
:1003E0000AD0C10D01F56071C0F3160042EA015157
:1003F000C2084007114370470020014670470000C3
:1004000030B5041E71F1000404DB4FF0004440429B
:1004100064EB0101141E73F1000405DB1C464FF070
:100420000043524263EB04038B4208BF824230BD5B
:1004300001F0004330B421F0004150EA010206D03F
:100440000A0DA2F56072C1F31301002A02DC30BC70
:1004500000207047440F44EAC104C100E01830BCDA
:1004600000EBC25000F072B8002801DBC0F1004080
:10047000002901DBC1F100418842704730B50B46CD
:10048000014600202022012409E021FA02F59D42C4
:1004900005D303FA02F5491B04FA02F52844151E98
:1004A000A2F10102F1DC30BD2DE9F05F054600202C
:1004B00092469B4688460646814640241BE02846D5
:1004C00041464746224600F087F953465A46C01A2D
:1004D000914110D311461846224600F016F82D1A05
:1004E00067EB01084F4622460120002100F00DF87D
:1004F00017EB00094E41201EA4F10104DFDC484641
:1005000031462A464346BDE8F09F202A04DB203AC4
:1005100000FA02F1002070479140C2F1200320FA56
:1005200003F3194390407047202A06DBCB17203A8B
:1005300041FA02F043EAE07306E041FA02F3D040E8
:10054000C2F1200291400843194670470029A8BF14
:100550007047401C490008BF20F00100704710B4EC
:10056000B0FA80FC00FA0CF050EA010404BF10BCA1
:10057000704749B1CCF1200421FA04F411FA0CF1CE
:1005800018BF012121430843A3EB0C01CB1D4FEA07
:1005900000614FEA102042BF002010BC704700EB02
:1005A000C35010440029A4BF10BC7047401C490030
:1005B00008BF20F0010010BC704710B5141E73F185
:1005C000000408DA401C41F1000192185B411A4313
:1005D00001D120F0010010BD2DE9F04D92469B465F
:1005E00011B1B1FA81F202E0B0FA80F22032904605
:1005F000FFF78BFF04460F4640EA0A0041EA0B0171
:1006000053465A46084313D0114653EA010019D005
:10061000C8F14002504600F0DFF805460E4650464D
:1006200059464246FFF771FF084305D0012004E018
:1006300020463946BDE8F08D0020054346EAE076C5
:100640002C4337430A986305E40AA0EB0800002214
:10065000FD0A44EA47540A3002D500200146E9E782
:10066000010510196941DDE9084500196941BDE836
:10067000F04DA2E72DE9F04D81EA030404F0004BB0
:1006800021F0004514464FF0000A23F0004150EAE3
:10069000050220D054EA01021DD0C5F30A570246D4
:1006A000C5F31303C1F31300C1F30A5640F48015D8
:1006B00043F48013A7EB0608101BD64608F2FD385A
:1006C00073EB050002D308F1010801E092185B41C9
:1006D000B8F1000F03DA00200146BDE8F08D0020DC
:1006E0004FF48011064684460EE0171B73EB050796
:1006F00005D3121B63EB050306434CEA010C4908C2
:100700004FEA300092185B4150EA0107EDD152EAFE
:10071000030012D082EA040083EA0501084305D0F1
:10072000101BAB4106D20122002306E000224FF04D
:10073000004302E06FF0010253101AEB06004CEB8D
:10074000085110EB0A0041EB0B01BDE8F04DFFF73B
:1007500034BFC1F30A52C1F3130140F2FF3341F435
:1007600080119A4202DA00200146704740F233437A
:100770009A42A2F2334202DC524200F02DB8FFF757
:10078000C4BE000030B5041E71F1000404DB4FF05C
:100790000044404264EB0101141E73F1000405DBC8
:1007A0001C464FF00043524263EB0403994208BFDA
:1007B000904230BD064C074D06E0E06840F0010372
:1007C00094E8070098471034AC42F6D3FFF7B4FC26
:1007D000A46C0008C46C0008202A04DB203A21FA2B
:1007E00002F00021704721FA02F3D040C2F120024A
:1007F000914008431946704710B50023002215E0C8
:1008000000210AE00B48405C0B4C04EB8204645C62
:10081000A04200D15B1C481CC1B20429F2DB042BAE
:1008200001D1012010BD0023501CC2B2052AE7DB14
:100830000020F7E7010000204800002070B5FFF716
:10084000DBFF012838D101F0BBF8C08800EB400085
:1008500084B235A1204600F0F1FB374937480068E3
:10086000FFF702FE18D235480068FFF7B5FD0446D1
:100870004FF03332324BFFF7C3FD0DD201F0A0F839
:10088000C0888004040C2FA1204600F0D7FB01F0A3
:100890007DF900F0BDF81FE001F092F8C0888004F7
:1008A000040C2EA1204600F0C9FB00F0B1F807218E
:1008B000012001F0DBF80FE001F082F8C08800EBC6
:1008C000400084B230A1204600F0B8FB00F0A0F850
:1008D0000721012001F0CAF8642002F0F1FB01F0C9
:1008E0006FF8C08800EB400084B22BA1204600F0D6
:1008F000A5FB01F065F8C0888004040C26A1204601
:1009000000F09CFB01F05CF8C08800EB800084B232
:1009100021A1204600F092FB00202949087001F037
:1009200099F800F06BF870BD57656C636F6D656288
:1009300061636B20210000000000F04110000020E6
:1009400033B3424054656D70657261747572652091
:100950006865616C7468792021000000506C6561E5
:1009600073652052652D6D65617375726520796FB1
:10097000757220626F64792074656D706572617440
:100980007572652100000000696C6C6567616C2000
:1009900061636365737321002020202020202020C4
:1009A0002020202020202020202020202020202047
:1009B0002020202020202020202020202000000097
:1009C0000000002008B50121042001F0E1FB4FF4F4
:1009D0008070ADF8000003208DF8020010208DF823
:1009E00003006946044800F07FF94FF48071024823
:1009F00000F00EFA08BD00000008014010B54FF4E9
:100A00008071024800F004FA10BD000000080140A7
:100A100010B54FF48071024800F0FCF910BD0000E1
:100A20000008014000BFFEE708480068022805D81A
:100A300006480068401C0549086006E00348006855
:100A4000032802D1002001490860704714000020EB
:100A500010B50448006810B901F00AFD01E001F08A
:100A6000F9FC10BD1800002070B505460C460026A4
:100A7000284601F085FC064626EA0401284601F0D6
:100A800049FE70BD704701B502E00098401E00901D
:100A900000980028F9D108BD002107E0002201E0FC
:100AA00000BF521C034B9A42FAD3491C8142F5D332
:100AB0007047000000CA080008B509E00021009155
:100AC00003E000BF0099491C009100994829F8DB18
:100AD000011EA0F10100F1D108BD10B5012000F008
:100AE00005F8FFF7A1FFFFF7B3FF10BD014908604C
:100AF0007047000014040140002123498279002A34
:100B00003AD00A46126803689A430B461A600A1DD7
:100B1000126803689A430B1D1A60027911440A682F
:100B200003681A430A60184A0832126803689A4335
:100B3000154B08331A601A1D126803689A43124B4A
:100B40000C331A604279102A0ED11A1F12680368FA
:100B50001A430D4B08331A601A1D126803681A43B2
:100B6000094B0C331A600DE00749427911440A68B9
:100B700003681A430A6005E0027911440A680368B1
:100B80009A430A60704700000004014051B182009E
:100B9000A2F1C042126842F001038200A2F1C042F9
:100BA000136009E08200A2F1C0421268034B1A40B0
:100BB0008300A3F1C0431A6070470000FEFF0F00DE
:100BC000D0E901121143C26811430269114342691D
:100BD000114382691143C2691143026A1143426A97
:100BE0001143826A1143C26A1143026B11430268C6
:100BF0009200A2F1C0421160816808290BD10168FE
:100C00008900A1F1C041096841F0400201688900F2
:100C1000A1F1C0410A60416B0968426B526841EA28
:100C20000211426B926841EA0221426B928941EAC9
:100C30000241426B128A41EA0251426B127D41EA43
:100C40000261426B926911430268521C9200A2F148
:100C5000C0421160C16AB1F5804F1BD1816B096838
:100C6000826B526841EA0211826B926841EA02216A
:100C7000826B128A41EA0251826B127D41EA026163
:100C8000826B9269114302689200A2F1C042C2F8DD
:100C9000041107E06FF0704201688900A1F1C041C2
:100CA000C1F804217047000030B500228B071C0FEB
:100CB0000F2303FA04F20B4B8C1053F824309343A8
:100CC000084C8D1044F8253023468C1053F82430FE
:100CD0008C07240F00FA04F42343024C8D1044F8CF
:100CE000253030BD080001402DE9F04102460025C5
:100CF0000026002000230024002791F803C00CF0F8
:100D00000F0591F803C00CF0100CBCF1000F03D0DC
:100D100091F802C04CEA050591F800C0BCF1000F43
:100D200031D0146800202BE04FF0010C0CFA00F3D6
:100D3000B1F800C00CEA03069E4220D183004FF0B8
:100D40000F0C0CFA03F7BC4305FA03FC4CEA04044D
:100D500091F803C0BCF1280F06D14FF0010C0CFA3A
:100D600000FCC2F814C00AE091F803C0BCF1480FBF
:100D700005D14FF0010C0CFA00FCC2F810C0401C69
:100D80000828D1D31460B1F800C0BCF1FF0F34DDE6
:100D9000546800202EE000F1080C4FF0010808FA1A
:100DA0000CF3B1F800C00CEA03069E4221D1830087
:100DB0004FF00F0C0CFA03F7BC4305FA03FC4CEAA6
:100DC000040491F803C0BCF1280F05D100F1080C10
:100DD00008FA0CF8C2F8148091F803C0BCF1480F6F
:100DE00007D100F1080C4FF0010808FA0CF8C2F81E
:100DF0001080401C0828CED35460BDE8F081024624
:100E0000002093680B400BB1012000E000207047E8
:100E1000416170470161704700BFFEE770B505464C
:100E2000002401F0C7FB002614E06006040E01F068
:100E3000B1FB0220FFF740FE80211448FFF7DFFFDF
:100E400008B144F0010401F0ADFB0220FFF734FECD
:100E5000701CC6B2082EE8DB01F0CEFB15B101F024
:100E6000C3FB01E001F0B8FB0220FFF725FE01F013
:100E700091FB0220FFF720FE01F094FB0220FFF718
:100E80001BFE01F0A9FB204670BD0000000C0140D4
:100E900070B5044601F0B0FB002518E004F08000B6
:100EA00010B101F099FB01E001F09EFB0220FFF779
:100EB00003FE01F06FFB0220FFF7FEFD01F072FB65
:100EC0000220FFF7F9FD6006040E681CC5B2082D6C
:100ED000E4DB01F081FB0220FFF7EEFD01F06AFB8D
:100EE00001F058FB0220FFF7E7FD80210448FFF7DF
:100EF00086FF064601F056FB01F07EFB304670BDD2
:100F0000000C014008B50121082001F041F9C02082
:100F1000ADF8000014208DF8030003208DF80200C6
:100F200069460648FFF7E0FE40210448FFF772FFDC
:100F300080210248FFF76EFF08BD0000000C014051
:100F400010B504462CB14FF480510548FFF760FFFF
:100F500004E04FF480510248FFF75CFF10BD000031
:100F6000001401402DE9F04106460F4614461D4687
:100F70002B4622463946304600F032FA04FB05F093
:100F80000249098800F0C5F8BDE8F0812A00002078
:100F900001B502E00098401E009000980028F9D1A9
:100FA00008BD00002DE9F05F804689461646A6F18F
:100FB00020001FFA80FA1E49096889881C4A1268B5
:100FC000D28801FB02F0C11700EB5171C1F3C707D2
:100FD0001748006800680AFB070B15480068C388BB
:100FE0001348006882884946404600F0F9F92C20F1
:100FF00000F0A0FC002416E0002510E01BF804001F
:1010000080212941084020B10A48008800F096FC60
:1010100003E00948008800F091FC681CC5B2082D67
:10102000ECDB601CC4B2BC42E6DBBDE8F09F000014
:1010300024000020280000202A00002070B504466B
:101040000D46002624E03046134909688988084483
:1010500012490988884205DD00260F480068C088CB
:10106000204484B220460C490968C98808440C49C8
:101070000988884201DD002600242A78214630466E
:10108000FFF790FF6D1C044800688088304486B2EA
:1010900028780028D7D170BD240000201C00002033
:1010A0001E00002000B597B03C2108A8FFF763F8A8
:1010B0001C2101A8FFF75FF80121080201F058F890
:1010C00001200190042003908006079000200290E8
:1010D0000490059006900890099008200A9010202E
:1010E0000B9000200C900E900F9010904FF48050B9
:1010F0001190002012901390149001A81590169052
:1011000008A8FFF75DFD01210020FFF73FFD17B0A4
:1011100000BD70B504460D4600262C2000F00AFCE8
:1011200000BF03E0284600F009FC761CA642F9D374
:1011300070BD000008B50121602001F029F80320EE
:101140008DF8020018208DF803004FF48040ADF8B0
:10115000000069465B48FFF7C7FD4FF40040ADF85B
:10116000000069465748FFF7BFFD0120ADF80000B9
:1011700069465448FFF7B8FD0220ADF80000694603
:101180005048FFF7B1FD8020ADF8000069464E4899
:10119000FFF7AAFD4FF48070ADF8000069464A4899
:1011A000FFF7A2FD4FF40070ADF800006946464815
:1011B000FFF79AFD4FF48060ADF8000069464248A1
:1011C000FFF792FD4FF40060ADF8000069463E481D
:1011D000FFF78AFD4FF48050ADF8000069463A48A9
:1011E000FFF782FD4FF40050ADF800006946364825
:1011F000FFF77AFD4FF48040ADF8000069463248B1
:10120000FFF772FD4FF40040ADF8000069462E482C
:10121000FFF76AFD4FF48070ADF800006946294879
:10122000FFF762FD4FF40070ADF8000069462548F5
:10123000FFF75AFD4FF48060ADF800006946214881
:10124000FFF752FD03208DF8020018208DF80300EF
:101250001020ADF8000069461A48FFF745FD202030
:10126000ADF8000069461748FFF73EFD8020ADF855
:10127000000069461348FFF737FD4FF40060ADF8F2
:10128000000069460F48FFF72FFD10208DF803007E
:1012900003208DF802000220ADF8000069460A48DC
:1012A000FFF722FD10208DF8030003208DF80200C7
:1012B0004FF48050ADF8000069460248FFF714FD76
:1012C00008BD0000001401400018014010B504469C
:1012D000072C00DD10BD31480470204604EBD071AE
:1012E0004910A4EB410139B9F0202D4908804FF491
:1012F000A0702C49088006E04FF4A07028490880AF
:10130000F02028490880362000F014FB2648008889
:1013100049F24131884205D1082141EA441000F0E8
:101320000DFB0AE02048008848F25251884204D15F
:10133000002141EA441000F001FB2A2000F0FAFAF3
:10134000002000F0FBFA002000F0F8FA14490988A8
:10135000491EC1F3072000F0F1FA11490978491E2E
:10136000C8B200F0EBFA2B2000F0E4FA002000F005
:10137000E5FA002000F0E2FA0A490988491EC1F3A3
:10138000072000F0DBFA07490978491EC8B200F0CF
:10139000D5FA2C2000F0CEFA00BF9BE720000020F9
:1013A0001C0000201E0000202200002010B5FFF7C6
:1013B000C1FEFFF777FE0120FFF7C2FD00F0A6FA9D
:1013C00000F03EF805480078FFF780FF00F00EFBC4
:1013D00000214FF6FF7000F0F9FA10BD2000002048
:1013E0002DE9F04104460D4616461F462A2000F01E
:1013F000A1FA201200F0A2FAE0B200F09FFAA119BF
:10140000491EC1F30F2000F099FAA119491EC8B274
:1014100000F094FA2B2000F08DFA281200F08EFADA
:10142000E8B200F08BFAE919491EC1F30F2000F071
:1014300085FAE919491EC8B200F080FABDE8F081CA
:1014400010B500F025FAFE4908800846008849F2E8
:10145000413188427ED1CF2000F06CFA002000F0AC
:101460006DFA812000F06AFA302000F067FAED2072
:1014700000F060FA642000F061FA032000F05EFAE8
:10148000122000F05BFA812000F058FAE82000F00A
:1014900051FA852000F052FA102000F04FFA78201F
:1014A00000F04CFACB2000F045FA392000F046FA63
:1014B0002C2000F043FA002000F040FA342000F025
:1014C0003DFA062000F03AFAF72000F033FA202027
:1014D00000F034FAEA2000F02DFA002000F02EFA95
:1014E000002000F02BFAB12000F024FA002000F0D8
:1014F00025FA1B2000F022FAB62000F01BFA0A2081
:1015000000F01CFAA22000F019FAC02000F012FA34
:10151000352000F013FAC12000F00CFA112000F081
:101520000DFAC52000F006FA452000F007FA452024
:1015300000F004FAC72000F0FDF9A22000F0FEF947
:10154000F22000F0F7F9002000F0F8F9262000F072
:10155000F1F900E096E0012000F0F0F9E02000F061
:10156000E9F90F2000F0EAF9262000F0E7F924203D
:1015700000F0E4F90B2000F0E1F90E2000F0DEF9B4
:10158000092000F0DBF9542000F0D8F9A82000F081
:10159000D5F9462000F0D2F90C2000F0CFF9172041
:1015A00000F0CCF9092000F0C9F90F2000F0C6F9CD
:1015B000072000F0C3F9002000F0C0F9E12000F09E
:1015C000B9F9002000F0BAF9192000F0B7F91B2092
:1015D00000F0B4F9042000F0B1F9102000F0AEF9E9
:1015E000072000F0ABF92A2000F0A8F9472000F00E
:1015F000A5F9392000F0A2F9032000F09FF9062098
:1016000000F09CF9062000F099F9302000F096F9DE
:10161000382000F093F90F2000F090F9362000F008
:1016200089F9C82000F08AF92A2000F083F9002007
:1016300000F084F9002000F081F9002000F07EF92C
:10164000EF2000F07BF92B2000F074F9002000F06F
:1016500075F9002000F072F9012000F06FF93F20C9
:1016600000F06CF93A2000F065F9552000F066F9B9
:10167000112000F05FF97348FFF78AFC292000F081
:1016800059F901E16E48008848F252518842F8D178
:10169000CF2000F04FF9002000F050F9C12000F0F9
:1016A0004DF9302000F04AF9ED2000F043F96420B4
:1016B00000F044F9032000F041F9122000F03EF957
:1016C000812000F03BF9E82000F034F9852000F09B
:1016D00035F9102000F032F9782000F02FF9CB20F6
:1016E00000F028F9392000F029F92C2000F026F923
:1016F000002000F023F9342000F020F9022000F04F
:101700001DF9F72000F016F9202000F017F9EA2063
:1017100000F010F9002000F011F9002000F00EF99F
:10172000C02000F007F9212000F008F9C12000F0E6
:1017300001F9112000F002F9C52000F0FBF82D207E
:1017400000F0FCF8332000F0F9F8362000F0F2F851
:10175000002000F0F3F83A2000F0ECF8552000F0FB
:10176000EDF8B12000F0E6F8002000F0E7F81720CF
:1017700000F0E4F8B62000F0DDF80A2000F0DEF812
:10178000A22000F0DBF8F62000F0D4F8012000F0F1
:10179000D5F8302000F0D2F8F22000F0CBF800208D
:1017A00000F0CCF8262000F0C5F8012000F0C6F8C3
:1017B000E02000F0BFF8D02000F0C0F8002000F0DA
:1017C000BDF8022000F0BAF8072000F0B7F80B20AF
:1017D00000F0B4F81A2000F0B1F8312000F0AEF8B3
:1017E000542000F0ABF8402000F0A8F8292000F0C9
:1017F000A5F8122000F0A2F8122000F09FF81220A5
:1018000000F09CF8172000F099F8E12000F092F821
:10181000D02000F093F8002000F090F8022000F0B3
:101820008DF8072000F08AF8052000F087F82520C1
:1018300000F084F82D2000F081F8442004E000003E
:1018400022000020FCBF020000F078F8452000F0E4
:1018500075F81C2000F072F8182000F06FF81620C0
:1018600000F06CF81C2000F069F81D2000F066F80C
:10187000112000F05FF80548FFF78AFB292000F0EF
:1018800059F82C2000F056F810BD0000FCBF0200F3
:1018900010B50024042000F04DF800BF1748008860
:1018A00000BF1648008800F02BF804464FF6FF7082
:1018B00000EA042400F024F8044348F25250844221
:1018C00001D1204610BDD32000F034F800BF0B48F2
:1018D000008800BF0948008800F012F804464FF65F
:1018E000FF7000EA042400F00BF8044349F2413091
:1018F000844201D12046E5E70020E3E700000260D2
:1019000001480088704700000000026010B5022105
:101910000748FFF77DFA40F6FF20FFF739FB022169
:101920000348FFF777FA40F6FF20FFF731FB10BDC1
:10193000001801404FF0C0410880704701490880FD
:1019400070470000000002601FB50121042000F074
:101950001FFC0121084600F01BFC48208DF80F00F9
:101960000120ADF80C0003208DF80E0003A91348E8
:10197000FFF7BAF900210846FFF796F90120019018
:101980008DF80A0000208DF808000C208DF8090061
:1019900001A8FFF7B1F84FF4A06000F093FA062019
:1019A0008DF8000001208DF801008DF802008DF8FF
:1019B0000300684600F04EFA1FBD00000008014019
:1019C000014800687047000024000020024A10808F
:1019D000024A118070470000280000202A000020E1
:1019E00001490860704700002400002010B50B4832
:1019F0000078401C094908700948FFF7F1FF0021F1
:101A00004FF47840FFF7E2FF064803880648028853
:101A100000210846FFF7A6FA10BD00002C000020A8
:101A2000300000201E0000201C00002010B52321E3
:101A30000148FFF7EFF910BD000C014010B523215C
:101A40000348FFF7E7F902210148FFF7E1F910BD6C
:101A5000000C014010B523210348FFF7DBF90321F7
:101A60000148FFF7D5F910BD000C014070B50546DF
:101A70000E460024012D11D100BF0CE0FFF7D6FF68
:101A800000F0B6F8232001F01BFBFFF7CFFF232067
:101A900001F016FB641CB442F0D376E0022D11D1A4
:101AA00000240CE0FFF7C2FF00F070F8232001F0E3
:101AB00007FBFFF7BBFF232001F002FB641CB442CD
:101AC000F0D362E0032D11D100240CE0FFF7AEFF4C
:101AD000FFF7B4FF232001F0F3FAFFF7A7FF23205D
:101AE00001F0EEFA641CB442F0D34EE0062D11D1A1
:101AF00000240CE0FFF79AFF00F06EF8232001F0BD
:101B0000DFFAFFF793FF232001F0DAFA641CB442F6
:101B1000F0D33AE0072D11D100240CE0FFF786FF47
:101B2000FFF798FF232001F0CBFAFFF77FFF232078
:101B300001F0C6FA641CB442F0D326E0052D11D1A1
:101B400000240CE0FFF772FF00F066F8232001F09C
:101B5000B7FAFFF76BFF232001F0B2FA641CB4421E
:101B6000F0D312E0042D10D100240CE0FFF75EFF4B
:101B700000F04AF8232001F0A3FAFFF757FF2320D3
:101B800001F09EFA641CB442F0D370BD10B523215D
:101B90000348FFF73FF901210148FFF739F910BD6C
:101BA000000C014008B50121082000F0F1FA2320C3
:101BB000ADF8000003208DF8020010208DF803001E
:101BC00069460448FFF790F823210248FFF722F9FD
:101BD00008BD0000000C014010B523210348FFF7A9
:101BE00019F922210148FFF713F910BD000C01403B
:101BF00010B523210348FFF70DF920210148FFF715
:101C000007F910BD000C014010B523210148FFF772
:101C1000FFF810BD000C014010B523210348FFF769
:101C2000F9F821210148FFF7F3F810BD000C01403D
:101C300010B50446412C25D108210846FEF714FFB3
:101C40003D21112000F066FD8621172000F062FD85
:101C50007F21262000F05EFD1E212D2000F05AFD80
:101C600000212C2000F056FD8D212A2000F052FD8D
:101C70003E212B2000F04EFD012001F021FA00F062
:101C800031F901E0FF2010BD0020FCE710B500F0A5
:101C9000B3FC00F087FC00F0A7FC0220FEF70CFF6D
:101CA00000F078FC0220FEF707FF00F095FC022010
:101CB000FEF702FF10BD10B50720FFF7E9F810BDD1
:101CC00010B5B520FFF7E4F810BD10B5B420FFF74C
:101CD000DFF810BD10B500F08FFC00F05BFC00F0E9
:101CE0007BFC0220FEF7E8FE00F07EFC0220FEF7FF
:101CF000E3FE00F057FC0120FEF7DEFE10BD000001
:101D00002DE9F04F89B0FFF7E5FFFFF7DEFFFFF7A2
:101D1000D2FFFFF7DFFFFFF7D3FF0120FFF77EF8C9
:101D200082460120FFF77AF883460020FFF776F815
:101D3000FFF7ACFF4AEA0B2000900098FEF73FFB4C
:101D40008046154A154BFEF7C8FA06464FF0663234
:101D5000134BFEF7BCFA0446FEF76AFB1149086014
:101D600008460068FEF738FB044622460B460EA1E3
:101D700001A800F023FDFFF723FEC08800EB400020
:101D80004004040C01A92046FFF758F905480068F3
:101D900009B0BDE8F08F00007B14AE47E17A943FB4
:101DA000661271400800002054656D7065726174A0
:101DB0007572653A20252E3266204320000000000F
:101DC00000BFFEE708B50121042000F0E1F941F26F
:101DD0005400ADF8000010208DF8030003208DF8AA
:101DE000020069460948FEF77FFF0820ADF80000B1
:101DF00048208DF8030069460448FEF775FF01206E
:101E000000F006F8002000F013F808BD00080140BB
:101E100010B5044624B110210448FEF7FBFF03E08F
:101E200010210248FEF7F4FF10BD00000008014039
:101E300010B5044624B104210448FEF7EBFF03E08B
:101E400004210248FEF7E4FF10BD00000008014035
:101E50007047000070B5002100230F22C47804B33E
:101E6000154C246804F4E064C4F5E064210AC1F16F
:101E70000403CA40447804FA03F1847814402143EF
:101E800009010E4C0678A155047804F01F050124C1
:101E9000AC4005786D11AD0005F1E025C5F80041B5
:101EA00009E0047804F01F050124AC40044D0678D5
:101EB000761145F8264070BD0CED00E000E400E02E
:101EC00080E100E002490143024A116070470000CE
:101ED0000000FA050CED00E010B503211420FEF718
:101EE000C3FD10BD10B5142000F04AFA044604F0FA
:101EF000030018B90321142000F0C9FA10BDF0B591
:101F000087B00546002708210846FEF7ADFD0021F1
:101F10000D2000F0FFFB80210E20FEF7A5FD932091
:101F20008DF8040020208DF8050006A801AB0222E0
:101F300001A900900C2000F01AF8064686B900248A
:101F400007E001A8005D285501A8005D4740601C1E
:101F5000C4B2042CF5DB01A8005DB84200D0FE2617
:101F600080210E2000F093FA304607B0F0BD2DE935
:101F7000FE4F0646884691469A46DDF830B0FE2070
:101F800002900020019000900C2E06D00E2E09D158
:101F9000122001901020009005E077200190302061
:101FA000009000E000BF00BF019840F080010220D7
:101FB00000F0B0FB80210420FEF756FD0021012037
:101FC00000F0A8FB80210A2000F061FA002505E05E
:101FD00018F80510092000F09DFB6D1C4D45F7D346
:101FE0003146012000F096FB0C2E03D180210D20FC
:101FF00000F04DFA4FF4FA6500BF042000F0C0F97C
:1020000004466D1E35B104F0010018B90098204057
:102010000028F2D080210D20FEF726FD95B3062082
:1020200000F0AEF900F01B0068BB002002900198A0
:10203000204000F0010008B1FF2002900C2E24D1B6
:102040000A2000F09DF904460C2000F099F900F0F8
:1020500007072FB1601E07EBC000CBF8000002E0BD
:10206000E000CBF8000004B90124122C00DD12249A
:10207000002505E0092000F083F90AF805006D1C31
:10208000A542F7D301E0FE20029080210C2000F051
:10209000FEF90021012000F03DFB0298BDE8FE8F13
:1020A00070B588B005460C4608210846FEF7DCFCF2
:1020B00007210D2000F02EFB0321142000F0E7F98A
:1020C0008DF8085007A802AB012202A900900C204D
:1020D000FFF74DFF06464EB90798102806D19DF828
:1020E000080020709DF80900607000E0FE26304670
:1020F00008B070BD10B54FF480511B48FEF78AFE42
:10210000012000F0DDFF4FF480511748FEF780FEFC
:10211000012000F0D5FF4FF480511348FEF77AFEFE
:102120000A2000F0CDFF022000F02AF90F21012043
:1021300000F0F0FA3D21112000F0ECFA1E212D20D4
:1021400000F0E8FA00212C2000F0E4FA8D212A208A
:1021500000F0E0FA3E212B2000F0DCFA40211520AF
:1021600000F0D8FA002010BD0008014070470000C0
:1021700029B1064A52690243044B5A6104E0034AFA
:1021800052698243014B5A617047000000100240BF
:1021900029B1064A92690243044B9A6104E0034A5A
:1021A00092698243014B9A6170470000001002401F
:1021B00010B5FFF79FFFFFF78FFEFFF793FE41205B
:1021C000FFF736FD10BD000010B54FF480510748F1
:1021D000FEF71EFE0520FEF75FFC4FF4805103481A
:1021E000FEF718FE0520FEF757FC10BD0008014061
:1021F000F0B591B010A92620FFF752FF04463748EA
:10220000FFF77DFE0546262000F0BAF807463B465C
:10221000262233A103A800F0D1FAFFF7D1FBC08832
:10222000C0EB001086B203A93046FEF707FF002C72
:1022300035D13348006858B1FFF7C2FBC0880005AC
:10224000060C30A13046FEF7F9FE00202C4908604C
:10225000D5B92248C07821498978CDE900101F48B6
:10226000437802782FA103A800F0A8FA012034498E
:102270000870FFF7A5FBC08800EB001086B203A929
:102280003046FEF7DBFE24E0FFF79AFBC08800EB48
:10229000001086B22BA13046FEF7D0FE19E0184898
:1022A0000068012815D0FFF78BFBC0880005060CDD
:1022B00029A13046FEF7C2FEFFF782FBC08800EB83
:1022C000001086B229A13046FEF7B8FE01200C4965
:1022D0000860142000F0F4FE11B0F0BD01000020F1
:1022E000416464726573733A307825303258204FF8
:1022F000726967696E616C3A307825303258000037
:1023000074000020436172642064657465637465C1
:10231000642C2072656164696E67205549442E2ED5
:102320002E0000005549443A2025303258202530EF
:102330003258202530325820253032580000000015
:1023400000000020416E7469636F6C6C20457272EE
:102350006F722020202020004E6F20436172642085
:1023600020202020202020202020000020202020AD
:10237000202020202020202020202020202000009D
:102380002DE9F0410646002510212348FEF740FDC7
:102390007E2000EA460040F08007082417E0042170
:1023A0001D48FEF735FD07F0800020B140211A4896
:1023B000FEF730FD03E040211748FEF729FD042118
:1023C0001548FEF727FD7806070E601EC4B2002CE4
:1023D000E5DC082413E004210F48FEF719FD680628
:1023E000050E04210C48FEF715FD08210A48FEF7EA
:1023F00006FD012801D145F00105601EC4B2002C84
:10240000E9DC10210448FEF705FD04210248FEF72F
:1024100001FD2846BDE8F0810008014008B5012112
:102420001020FFF7B5FE4FF48070ADF800001020CB
:102430008DF8030003208DF8020069460448FEF77A
:1024400053FC4FF480710248FEF7E4FC08BD000025
:102450000010014010B54FF480710348FEF7DAFC1C
:1024600000200249086010BD001001401800002043
:1024700010B54FF480710348FEF7CAFC01200249F1
:10248000086010BD0010014018000020704770B5B2
:1024900005460C4600262846FFF772FF064646EA28
:1024A0000401284600F036F970BD10B500F002F8BE
:1024B00010BD00000CB5002001900090334800686A
:1024C00040F480303149086000BF3048006800F4B3
:1024D000003000900198401C0190009818B90198B4
:1024E000B0F5A06FF1D12948006800F4003010B1B8
:1024F0000120009001E0002000900098012843D1C5
:102500002348006840F01000214908600846006830
:1025100020F0030008600846006840F002000860F0
:102520001A484068194948600846406848600846AB
:10253000406840F4806048600846406820F47C10A1
:1025400048600846406840F4E81048600846006863
:1025500040F08070086000BF0C48006800F0007018
:102560000028F9D00948406820F003000749486076
:102570000846406840F00200486000BF03484068D9
:1025800000F00C000828F9D10CBD0000001002403A
:102590000020024010B540210148FEF73BFC10BD71
:1025A000000C014010B540210148FEF731FC10BD80
:1025B000000C014008B58020ADF8000004208DF823
:1025C000030003208DF8020069460248FEF78CFBE9
:1025D00008BD0000000C014010B580210148FEF745
:1025E00019FC10BD000C014010B580210148FEF718
:1025F0000FFC10BD000C014008B58020ADF80000B4
:1026000014208DF8030003208DF80200694602486B
:10261000FEF76AFB08BD0000000C014010B517482A
:10262000006838B9FFF7CCF9C48815A12046FEF739
:1026300005FD22E011480068012807D1FFF7C0F925
:10264000C48812A12046FEF7F9FC16E00B4800688A
:10265000022807D1FFF7B4F9C4880FA12046FEF77E
:10266000EDFC0AE005480068032806D1FFF7A8F949
:10267000C4880CA12046FEF7E1FC10BD1400002028
:10268000204D4F444520302000000000204D4F4495
:102690004520312000000000204D4F4445203220CD
:1026A00000000000204D4F444520330070470000DB
:1026B00010B51348006840F0010011490860084651
:1026C0004068104908400E494860084600680E49B5
:1026D00008400B4908600846006820F48020086024
:1026E0000846406820F4FE0048604FF41F008860F0
:1026F000FFF7DBFE4FF000600449086010BD0000EA
:10270000001002400000FFF8FFFFF6FE08ED00E0B9
:1027100000BFFEE72DE9F04106460D46042126489C
:10272000FEF776FB10212448FEF772FB7E2000EABC
:102730004607082417E007F0800020B140211E481A
:10274000FEF768FB03E040211B48FEF761FB042114
:102750001948FEF75FFB7806070E04211648FEF7BE
:1027600057FB601EC4B2002CE5DC082417E005F01E
:10277000800020B140211048FEF74CFB03E04021CF
:102780000D48FEF745FB04210B48FEF743FB6806A6
:10279000050E04210848FEF73BFB601EC4B2002C66
:1027A000E5DC10210448FEF735FB04210248FEF762
:1027B00031FBBDE8F0810000000801400FB4084B78
:1027C00010B504A902AA039800F0DEF8044602A995
:1027D000002000F070FC204610BC5DF814FB0000E7
:1027E000B730000802E008C8121F08C1002AFAD159
:1027F00070477047002001E001C1121F002AFBD181
:10280000704700002DE9FF5F82B00021DDE9043050
:10281000020DDDF840B0034318D044F61050A2F288
:10282000FF3242431514119801281FD0A5EB0B006D
:10283000401C5FEA000A4FF000064E4FDFF8389167
:10284000B046504615D5CAF1000413E01198012492
:102850004AA3012801D16FEA0B010298119AC0E93D
:102860000031C0E9024206B0BDE8F09FCBF10000A4
:10287000DFE704460021404A491842EB0450CDE905
:10288000001012E0E00707D032463B46404649467A
:10289000FDF723FD8046894632463B4610461946E1
:1028A000FDF71BFD06460F466410002CEAD1DDE95A
:1028B0000401DDE90023BAF1000F06DAFDF70DFD92
:1028C00042464B46FDF709FD05E0FDF7D3FE4246C3
:1028D0004B46FDF7CFFE04460E460022284BFDF77F
:1028E00051FF03D84FF0FF30014607E00022254B8F
:1028F00020463146FDF74AFCFDF72BFF102409E086
:10290000002C0ADB0A220023FDF7CEFD039B3032A8
:102910001A55641E50EA0102F2D1641C039AC4F1F4
:1029200011031444119A012A03D0012208430DD146
:102930000AE0084304D000204FF0110B119072E719
:10294000A3EB0B056D1E0DE05B4504DD4FF00002AF
:1029500005F1010504E003DA4FF00002A5F10105DD
:10296000002AECD002981199C0E90231C0E9004573
:1029700079E70000000014400000F03F3000000044
:102980000000F0430000E03F2DE9FF4F95B09B466B
:102990008946064600250FE2252877D100242746E0
:1029A000F84A0121059400E0044316F8013F203B5A
:1029B00001FA03F01042F7D130782A2811D06FF0D5
:1029C0002F033078A0F13002092A16D8059A44F076
:1029D000020402EB820203EB42021044761C0590D3
:1029E000EFE759F8042B0592002A03DA504244F429
:1029F0000054059044F00204761C30782E2816D13D
:102A000016F8010F44F004042A280DD06FF02F02AD
:102A10003078A0F13003092B09D807EB870302EBCC
:102A20004303C718761CF3E759F8047B761C30780B
:102A30006C280FD006DC4C2817D068280DD06A28E7
:102A400014D104E0742810D07A280FD10DE044F49A
:102A500000140AE044F4801401E044F44014727855
:102A6000824202D104F58014761C761C30786628E8
:102A70000BD013DC582877D009DC002875D0452806
:102A8000F6D04628F4D047281AD19DE118E06328F3
:102A900035D0642879D0652812D195E1702873D09B
:102AA00008DC6728F1D069286FD06E280DD06F2818
:102AB00006D1B5E073282CD0752875D0782874D04D
:102AC0005A46179990476D1C75E1C4F302500228CD
:102AD00009D003280DD0D9F8001004280DD00D60BE
:102AE00009F1040967E1D9F80010EA17C1E90052B9
:102AF000F6E7D9F800100D80F2E70D70F0E719F84D
:102B0000041B8DF8001000208DF80100EA4601201A
:102B100003E059F804AB4FF0FF3061074FF00001BC
:102B200002D40DE008F101018846B9420FDA804570
:102B3000F8DB1AF808100029F4D108E008F10101C7
:102B400088468142FADB1AF808100029F6D1059868
:102B50005B46A0EB080721463846179A00F094FA26
:102B6000284400EB080507E04DE029E10DE01AF8E4
:102B7000010B5A4617999047B8F10108F7D25B4606
:102B800021463846179A13E142E00A220092C4F324
:102B900002524FF0000A022A08D059F804CB032A47
:102BA0004FEAEC710AD00DE029E02AE009F10701B3
:102BB00021F00702F2E802C1914609E00FFA8CFC0D
:102BC0004FEAEC71042A03D14FFA8CFC4FEAEC7106
:102BD000002907DA0A460021DCF1000C61EB020152
:102BE0002D2202E0220504D52B228DF8042001229B
:102BF00003E0E20701D02022F7E7904659E00A21DE
:102C000002E010220DE010214FF0000A00910BE0CD
:102C100010224FF0000A44F004040827009203E059
:102C200008224FF0000A0092C4F30252022A05D093
:102C300059F804CB0021032A08D009E009F1070163
:102C400021F00702F2E802C1914605E01FFA8CFC70
:102C5000042A01D10CF0FF0C4FF00008220728D500
:102C6000702806D0009B83F0100353EA0A0305D0B6
:102C70000EE040228DF80420012208E05CEA010207
:102C800006D030228DF804208DF8050002229046EF
:102C9000009B83F0080353EA0A030AD15CEA0102AD
:102CA00001D1620705D530228DF804204FF00108CC
:102CB0007F1E582804D034A003900EA802900DE087
:102CC00036A0F9E753466046009AFDF7EDFB8446CF
:102CD0000398825C0298401E029002705CEA010038
:102CE000F0D1029806A9081A00F1200A600702D55F
:102CF00024F4803400E00127574502DDA7EB0A00E9
:102D000000E0002000EB0A01009005984144401AC1
:102D10000590E00306D45B462146179A059800F01B
:102D2000B3F90544002706E001A85A46C05D17998B
:102D300090476D1C7F1C4745F6DBE0030CD55B46D6
:102D40002146179A059800F09FF9054404E03020C9
:102D50005A46179990476D1C0099481E009000290B
:102D6000F5DC08E0029802995A460078491C029165
:102D7000179990476D1CBAF10001AAF1010AF1DC24
:102D800065E100000928010030313233343536372F
:102D900038396162636465660000000030313233A7
:102DA0003435363738394142434445460000000047
:102DB00000F058F90544761C307800287FF4ECAD1B
:102DC00019B02846BDE8F08F620700D4062709F144
:102DD000070222F0070CFCE80223E14603F000485A
:102DE0005FEA080C02D00FF2702C0DE05FEA045C81
:102DF00002D50FF2682C07E05FEAC47C02D00FF224
:102E0000602C01E0AFF2700C4FF0FF3823F000436C
:102E1000CDF850C065280CD006DC452809D04628DE
:102E20001DD047283DD13DE0662818D067287ED1C7
:102E300038E00021112F01DB112000E0781CCDE9E2
:102E4000000106A90EA8FFF7DDFCDDE90F010E9ACF
:102E500003910021009207F1010A04914DE04FF027
:102E600000400097CDE9011006A90EA8FFF7CAFCA3
:102E7000DDE90F0203920E9B11990022DDF80CA0F0
:102E80000093049211B9791C00EB010AB7EB0A0018
:102E900004D4C0F1FF3007F1010A0490AAEB070047
:102EA000019044E0012F00DA01270021112F01DDFC
:102EB000112000E03846CDE9000106A90EA8FFF771
:102EC000A1FCDDE90F010E9A03910021049100920B
:102ED000BA4621070CD40399514500DA8A46BAF163
:102EE000010F05DD009AAAF10101515C302908D0DB
:102EF000B84202DA10F1040F06DA0121CDE901101F
:102F000015E0AAF10101E9E7002805DC0499014474
:102F10000491AAEB000102E0411C514500DD8A4604
:102F20000499401A401C01904FF000400290200785
:102F300004D40198504501DBCDF8048000208DF8C1
:102F40004F0002980DF14F07B0F1004F25D02B2014
:102F50000E9002984FF0020800280CDA40420290CE
:102F60002D200E9007E00A210298FDF787FA3031F4
:102F7000029007F8011DB8F10001A8F10108F2DC88
:102F800002980028EFD1791E0E980870307800F072
:102F9000200040F0450007F8020D12A8C01B00F108
:102FA00007081498007800B1012000EB0A0101988D
:102FB00001EBE07105984144401A401E0590E00382
:102FC00006D45B462146179A059800F05DF8054443
:102FD0001498007818B15A46179990476D1CE00371
:102FE00024D55B462146179A059800F04DF8054414
:102FF0001CE00498002807DBDDE90301884203DDBB
:103000000098405C179901E0179930205A46904784
:10301000049805F10105401C04900198401E0190A0
:1030200004D12E205A46179990476D1CBAF1000121
:10303000AAF1010ADDDC05E017F8010B5A461799E1
:1030400090476D1CB8F10001A8F10108F4DC5B4663
:103050002146179A0598ABE62D0000002B000000D2
:10306000200000002DE9F041044600251E461746C9
:10307000880404D405E039462020B0476D1C641E46
:10308000F9D52846BDE8F0812DE9F0410446002538
:103090001E469046C80301D5302700E0202788044B
:1030A00004D505E041463846B0476D1C641EF9D58D
:1030B0002846BDE8F0810A68531C0B601070704709
:1030C000002107E0002200E0521C4EF660239A42E5
:1030D000FAD3491C8142F5D370470000FEF766F928
:1030E000FEF770FEFDF70EFFFFF76EF8FFF760F8D2
:1030F000FEF758FDFDF766FCFEF726FCFFF78EF99C
:10310000FEF7A8FCFFF7B4F914E0FFF787FAFEF723
:10311000F7FD094908600846006808490860FFF79C
:1031200067F807480078012801D1FDF787FB0120E7
:10313000FDF7A9FCE9E700000C00002010000020CA
:10314000000000200000000000000000000000005F
:1031500000000000000000181818181818080008CF
:1031600018000000000000342424240000000000A7
:10317000000000000000000016247F2424247E2488
:1031800024000000000000083E6848681C16121267
:103190007C10100000000061D296740810162949B6
:1031A000C6000000000000003C646438724ACE464D
:1031B0007F00000000000018181818000000000030
:1031C00000000000000000040818103030303010FB
:1031D00010180C04000000201008080C0404040C53
:1031E00008181020000000080A341C6A08000000BB
:1031F000000000000000000000001818187F1818D8
:10320000180000000000000000000000000000188E
:10321000180830000000000000000000003C000022
:103220000000000000000000000000000000001886
:10323000180000000000000206040C08081010200E
:1032400020400000000000003C6642475B7342667D
:103250003C00000000000000187848080808080832
:103260007E000000000000003C4606060408102016
:103270007E000000000000007C0606043C020206FE
:103280007C000000000000000C1C14246444FF04B7
:1032900004000000000000007E6060607E02020604
:1032A0007C000000000000001E3060487642426250
:1032B0003C000000000000007E0206040C0818100C
:1032C00030000000000000003C6242361C664242B2
:1032D0003C000000000000003C664242661A020406
:1032E000780000000000000000001818000000181E
:1032F000180000000000000000001818000000186E
:103300001808300000000000000004183060100CA5
:103310000600000000000000000000007E007E00AB
:1033200000000000000000000000301804060C102F
:1033300020000000000000301C06060618100010D7
:10334000100000000000001C224141DDB5A5A5AF22
:1033500094C0403C00000000181C342426627E43C8
:10336000C1000000000000007C4642467C42424210
:103370007C000000000000001E20404040404060F3
:103380003E000000000000007C46424343434246AA
:1033900078000000000000007E6060607E60606079
:1033A0007E000000000000007E6060607E60606063
:1033B00060000000000000001E604040CE424262FB
:1033C0003E00000000000000424242427E42424273
:1033D00042000000000000007E1818181818181885
:1033E0007E000000000000007C0404040404044487
:1033F00078000000000000004244485070584C44DF
:10340000420000000000000020202020202020207A
:103410003E000000000000006266675F5B5BC1C1A8
:10342000C100000000000000626272525A4A4E461B
:1034300046000000000000003C6243C3C3C3436277
:103440003C000000000000007C46424246784040BC
:1034500040000000000000003C6243C3C3C343625D
:103460003C180F00000000007C6662667C6C64669D
:1034700062000000000000003E6040601C06020286
:103480007C000000000000007F1818181818181899
:1034900018000000000000004242424242424262E4
:1034A0003C00000000000000C14342622624341C9E
:1034B0001800000000000000C1C141495B5B766656
:1034C000660000000000000043663418181C2466E3
:1034D000C300000000000000C14266341C18181828
:1034E00018000000000000007E02040C181020608C
:1034F0007E0000000000001C1010101010101010B2
:103500001010101C000000402020101008080C04AF
:10351000060200000000003C0C0C0C0C0C0C0C0C07
:103520000C0C0C3C00000000181C24620000000081
:10353000000000000000000000000000000000008B
:10354000000000FF0000002010000000000000004C
:10355000000000000000000000003C06023E424661
:103560007A0000000000004040405C62424242425B
:103570007C0000000000000000001E206040602071
:103580003E0000000000000202023E62424242662B
:103590003A0000000000000000003C62427E4060F3
:1035A0003E0000000000000F1810107E10101010D8
:1035B000100000000000000000003F664266584016
:1035C0003E43423C0000004040405C624242424276
:1035D00042000000000000181800780808080808D9
:1035E0007E000000000000040C007C0404040404BD
:1035F00004040C78000000606060626C787068649D
:1036000062000000000000780808080808080808A0
:103610007E000000000000000000764B4B4B4B4B3F
:103620004B0000000000000000005C624242424289
:10363000420000000000000000003C624243426281
:103640003C0000000000000000005C624242424278
:103650007C4040400000000000003E624242426662
:103660003A0202020000000000006E7263606060B7
:10367000600000000000000000003E20203C060228
:103680007C000000000000001010FE101010101050
:103690001E0000000000000000004242424242665C
:1036A0003A00000000000000000043426624341885
:1036B00018000000000000000000C1C15B5A5E66F7
:1036C0006600000000000000000062261C181C2696
:1036D0006200000000000000000043426624341C29
:1036E000181830E00000000000007E060C181020C2
:1036F0007E0000000000000E181010103070101036
:103700001010180E00000808080808080808080823
:103710000808080800000030180808080C0E0808FF
:10372000080818300000000000000000714B06007F
:103730000000000000000000000000000000000089
:103740000000000000000000000000000000000079
:103750000000000000000000000000000000000069
:1037600000000000000000000000000000000380D6
:103770000180018001800180018001800180018041
:1037800001800000000003C003C000000000000032
:1037900000000000000000000000000000000E70AB
:1037A0000E700E700C3000000000000000000000E1
:1037B0000000000000000000000000000000000009
:1037C00000000000000000000000000000000000F9
:1037D0000618063806307FFE0C300C300C300C30EA
:1037E0007FFE0C601C601860186000000000000084
:1037F00000000000000000000000000000C000C049
:103800000FF83CC831C031803D801F8003F001F8C3
:10381000031C030C031C3FF83FE0070006000000F8
:103820000000000000000000000000001C007E0EF0
:10383000630C631863307E6000C001800300077C66
:103840000EE61CC618C630C6607C000000000000F2
:1038500000000000000000000000000000000FE079
:103860001CF0387038701C601FC00F003F8C71CC8A
:1038700060EC607C70383CFC1FCE00000000000053
:10388000000000000000000000000000000003C075
:1038900001800180018000000000000000000000A5
:1038A0000000000000000000000000000000000018
:1038B000000000000000000000000000003000E0F8
:1038C00001C0018003000700060006000E000E0084
:1038D0000E000E00060007000300038001C000E098
:1038E0000030000000000000000000000C00060096
:1038F0000380018001C000E0006000600070007083
:1039000000700060006000E000C0018003800600DD
:103910000C0000000000000000000000000001801A
:1039200011881DB803C007E03DBC0188018000007C
:103930000000000000000000000000000000000087
:103940000000000000000000000000000000000077
:1039500000000000018001800180018001807FFE65
:103960000180018001800180000000000000000053
:103970000000000000000000000000000000000047
:103980000000000000000000000000000000000037
:103990000000000003C003C001C001C003801F007D
:1039A0000000000000000000000000000000000017
:1039B00000000000000000000000000000000FF008
:1039C00000000000000000000000000000000000F7
:1039D00000000000000000000000000000000000E7
:1039E00000000000000000000000000000000000D7
:1039F0000000000003C003C003C00000000000007E
:103A0000000000000000000000000000000000189E
:103A100000380030006000E000C001C001800300F9
:103A2000030006000E000C001C001800300000000F
:103A30000000000000000000000000000000018005
:103A40000FF01C38381C301C707E70EE738E7E0EAA
:103A50007C0C300C381C1E780FE0000000000000C9
:103A60000000000000000000000000000000000056
:103A700007C01FC039C001C001C001C001C001C0E2
:103A800001C001C001C03FFC3FFC0000000000007D
:103A900000000000000000000000000000000380A3
:103AA0001FF018380038001800380038007001E0A6
:103AB000038007001C003FFC3FFC000000000000EA
:103AC000000000000000000000000000000007806F
:103AD0001FF0003800380038003007E007F00038E9
:103AE000001C001C001820F83FE00000000000004F
:103AF00000000000000000000000000000000000C6
:103B000000F001B0033007300E301C303830703018
:103B10007FFE7FFE0030003000300000000000001B
:103B20000000000000000000000000000000000095
:103B30001FF818001800180018001FE000F8001CFB
:103B4000001C001C003800F01FC000000000000036
:103B50000000000000000000000000000000000065
:103B600003F80F001C001800300037F83C3C300C04
:103B7000300C380C381C1E380FF00000000000001C
:103B80000000000000000000000000000000000035
:103B90003FFC001C001800380070006000E001C00D
:103BA00001800380070006000E00000000000000F6
:103BB000000000000000000000000000000003C042
:103BC0001FF8381C381C381C1C380FF007F01C7804
:103BD000381C300C381C3C380FF00000000000008E
:103BE0000000000000000000000000000000038052
:103BF0001FF03838301C701C700C380C1FFC0FCCB8
:103C0000001C001800701FE01F8000000000000072
:103C100000000000000000000000000000000000A4
:103C200000000000000003C003C00180000000008D
:103C30000000000003C003C003C00000000000003B
:103C40000000000000000000000000000000000074
:103C500000000000000003C003C00180000000005D
:103C60000000000003C003C001C001C003800F00BA
:103C70000000000000000000000000000000000044
:103C800000000000003800F001C007001E003800EE
:103C90000E00078001C0007000300000000000002E
:103CA0000000000000000000000000000000000014
:103CB000000000000000000000003FFC00000000C9
:103CC0003FFC3FFC0000000000000000000000007E
:103CD00000000000000000000000000000000000E4
:103CE000000000001C000F00038001E00078001CB1
:103CF000007001E003800E000C00000000000000D6
:103D000000000000000000000000000000000FC0E4
:103D100000F0003800380038003803F0038003005A
:103D20000300000000000780078000000000000082
:103D300000000000000000000000000000E007F8A4
:103D40000C0C18063006700363F36633C673CC633D
:103D5000CC62CC66CCE6C7FCE00060007000381096
:103D60001FF0000000000000000000000000000044
:103D700003C007E006E00E700E700C301C381818F7
:103D80003FFC3FFC700E600EE007000000000000EA
:103D90000000000000000000000000000000000023
:103DA0003FF03838381C381C38383FF03FF8381CA2
:103DB000380C380C381C3FF83FE0000000000000D1
:103DC000000000000000000000000000000000E013
:103DD00007FC1E04380038003000700070007000CE
:103DE000300038003C001F9C07FC00000000000071
:103DF00000000000000000000000000000000000C3
:103E00003FF03078301C300C300E300E300E300E5B
:103E1000300E301C30383FF03FC000000000000082
:103E20000000000000000000000000000000000092
:103E30001FF818001800180018001FF81FF81800C5
:103E40001800180018001FF81FF8000000000000FC
:103E50000000000000000000000000000000000062
:103E60001FF818001800180018001FF81FF8180095
:103E700018001800180018001800000000000000CA
:103E8000000000000000000000000000000000F042
:103E900007FC1E04380030007000700070FC700CCD
:103EA000700C300C380C1F1C07FC000000000000D8
:103EB0000000000000000000000000000000000002
:103EC000300C300C300C300C300C3FFC3FFC300C14
:103ED000300C300C300C300C300C000000000000B6
:103EE00000000000000000000000000000000000D2
:103EF0003FFC018001800180018001800180018000
:103F00000180018001803FFC3FFC000000000000B8
:103F100000000000000000000000000000000000A1
:103F20001FF0003000300030003000300030003032
:103F30000030003000701DE01FC0000000000000D5
:103F40000000000000000000000000000000000071
:103F5000381C387038E039C03B803F003F003B8060
:103F600039C038E038703838381C000000000000D4
:103F70000000000000000000000000000000000041
:103F80001C001C001C001C001C001C001C001C0051
:103F90001C001C001C001FFC1FFC00000000000097
:103FA0000000000000000000000000000000000011
:103FB000381C7C3C6C3E6E6E666E66CE63C6638655
:103FC0006186600660066006600600000000000072
:103FD00000000000000000000000000000000000E1
:103FE0003C0C3C0C3E0C360C330C338C318C31CCFD
:103FF00030EC306C307C303C301C000000000000A5
:10400000000000000000000000000000000001C0EF
:104010000FF81C3C381C700E700E60066006700EA7
:10402000700E700C381C1E780FE0000000000000BD
:104030000000000000000000000000000000000080
:104040003FF0383C381C380C380C381C38783FE0CE
:104050003800380038003800380000000000000048
:10406000000000000000000000000000000001C08F
:104070000FF81C3C381C700E700E60066006700E47
:10408000700E700C381C1E780FE0018001C000FF1C
:10409000003C0000000000000000000000000000E4
:1040A0003FF0383838183818383838F03FC038E022
:1040B000387038383838381C380E000000000000DE
:1040C000000000000000000000000000000001E00F
:1040D0000FF83800380038003C001F8003F00078EB
:1040E000001C001C001C38783FE0000000000000AD
:1040F00000000000000000000000000000000000C0
:104100007FFE0180018001800180018001800180AB
:10411000018001800180018001800000000000001A
:10412000000000000000000000000000000000008F
:10413000300C300C300C300C300C300C300C300C9F
:10414000300C300C381C1C380FF000000000000050
:10415000000000000000000000000000000000005F
:10416000E006700E700E381C381C1C181C380C3001
:104170000E70066007E003C003C0000000000000EE
:10418000000000000000000000000000000000002F
:1041900060066006600660066186638673C673CE3D
:1041A000766C366C3C3C3C3C381C00000000000047
:1041B00000000000000000000000000000000000FF
:1041C000301C38181C380E7007E003C003C007E02D
:1041D0000E701C381838381C700E000000000000EB
:1041E00000000000000000000000000000000000CF
:1041F000700E700C381C1C380E70066007E003C08F
:104200000180018001800180018000000000000029
:10421000000000000000000000000000000000009E
:104220003FFC001C0038007000E001C00380070064
:104230000E000C0018003FFC3FFC000000000000D6
:1042400000000000000000000000000007F007F080
:10425000060006000600060006000600060006002E
:10426000060006000600060006000600060006001E
:1042700007F000000000000000000000000018002F
:104280001C000C000600070003000380018001C031
:1042900000C000600070003000380018000C000002
:1042A0000000000000000000000000000FE00FE030
:1042B00000600060006000600060006000600060FE
:1042C00000600060006000600060006000600060EE
:1042D0000FE00000000000000000000000000000EF
:1042E00003C006C006600C301818301C0000000027
:1042F00000000000000000000000000000000000BE
:1043000000000000000000000000000000000000AD
:10431000000000000000000000000000000000009D
:10432000000000000000000000000000000000008D
:10433000FFFF0000000000000000000000001E0061
:1043400003800000000000000000000000000000EA
:10435000000000000000000000000000000000005D
:10436000000000000000000000000000000000004D
:104370000000000000001FF01038001C001C0FFCA3
:104380001C1C381C381C3CFC1FDC0000000000001A
:1043900000000000000000000000000000003800E5
:1043A0003800380038003BF83E1C3C1C380C380CF8
:1043B000380C380C381C3C781FE00000000000006E
:1043C00000000000000000000000000000000000ED
:1043D00000000000000007F80E001C003800380044
:1043E000380038001C000F1807F80000000000001B
:1043F0000000000000000000000000000000001CA1
:10440000001C001C001C0FFC1C1C381C301C301C29
:10441000301C301C383C1CFC0F9C000000000000CD
:10442000000000000000000000000000000000008C
:104430000000000000000FF01C38381C300C3FFC5E
:104440003000300038001E0C07FC000000000000A7
:10445000000000000000000000000000003C01FE21
:1044600003800300030003007FFC7FFC03000300C4
:10447000030003000300030003000000000000002D
:10448000000000000000000000000000000000002C
:104490000000000000000FFE1C38381838181838CB
:1044A0001FF03B8030003FF01FFC300E700E381CB8
:1044B0001FF80000000000000000000000003800AD
:1044C0003800380038003BF83E383C1C381C381C9B
:1044D000381C381C381C381C381C00000000000038
:1044E000000000000000000000000000018003C088
:1044F00003C0000000001FC001C001C001C001C016
:1045000001C001C001C001C03FFC0000000000006C
:10451000000000000000000000000000002000700B
:104520000070000000003FF000700070007000702C
:10453000007000700070007000700070007020E06B
:104540003FC0000000000000000000000000180054
:10455000180018001800183C187018E01B801F0085
:104560001B8019E018701838181C000000000000AB
:1045700000000000000000000000000000001FC05C
:1045800001C001C001C001C001C001C001C001C023
:1045900001C001C001C001C03FFC000000000000DC
:1045A000000000000000000000000000000000000B
:1045B0000000000000006F3C79EE71CE718E718EAC
:1045C000718E718E718E718E718E000000000000F0
:1045D00000000000000000000000000000000000DB
:1045E0000000000000003BF83E383C1C381C381C22
:1045F000381C381C381C381C381C00000000000017
:1046000000000000000000000000000000000000AA
:104610000000000000000FF01C3C381C700E700EF3
:10462000700E700C381C1E780FE0000000000000B7
:10463000000000000000000000000000000000007A
:104640000000000000003BF83E1C3C1C380C380CFD
:10465000380C380C381C3C783FE038003800380003
:104660003800000000000000000000000000000012
:104670000000000000000FFC1C1C381C301C301C0B
:10468000301C301C383C1CFC0F9C001C001C001C07
:10469000001C0000000000000000000000000000FE
:1046A00000000000000019F81F1C1C0C180E180058
:1046B0001800180018001800180000000000000082
:1046C00000000000000000000000000000000000EA
:1046D0000000000000000FF81C0018001E000FC0B2
:1046E00001F80018001818381FF000000000000042
:1046F00000000000000000000000000000000000BA
:104700000600060006007FFC060006000600060004
:10471000060006000700078401FC000000000000FE
:104720000000000000000000000000000000000089
:10473000000000000000381C381C381C381C381CD5
:10474000381C381C383C1CFC0FDC0000000000004A
:104750000000000000000000000000000000000059
:10476000000000000000700C381C38181C380C3099
:104770000E70066007E003C003C0000000000000E8
:104780000000000000000000000000000000000029
:10479000000000000000600660066186738E73CC26
:1047A00033CC366C366C3C3C3C38000000000000DA
:1047B00000000000000000000000000000000000F9
:1047C000000000000000381C1C380E7007E003C019
:1047D00003C007E00E701C38381E00000000000007
:1047E00000000000000000000000000000000000C9
:1047F000000000000000700C381C38181C380C3009
:104800000E70066007E003C003C0038007000E00BF
:104810007C0000000000000000000000000000001C
:104820000000000000001FF80038007000E001C028
:10483000038007000C001FFC3FFC0000000000008C
:10484000000000000000000000000000007801F8F7
:104850000380038003800380038003003F003E0049
:10486000030003800380038003800380038001C072
:1048700000F800000000000001800180018001803C
:104880000180018001800180018001800180018020
:104890000180018001800180018001800180018010
:1048A0000180000000000000000000001E001F80CA
:1048B000018001C001C001C001C000C000FC007C3B
:1048C00000C001C001C001C001C001C001C003801F
:1048D0001F000000000000000000000000000000B9
:1048E000000000000000000000001C003F0671CE28
:1048F00060FC00000000000000000000000000005C
:1049000000000000000000000000000000000000A7
:104910000000000000000000000000000000000097
:104920000000000000000000000000000000000087
:104930000000000000000000000000000000000077
:104940000000000000000000000000000000000067
:104950000000000000000000000000000000000057
:104960000000000000000000000000000000000047
:10497000000000000000003C00003C00003C000083
:104980003C00003C00003C00003C00003C00003CBF
:1049900000003C00003C00003C00003C00003C00EB
:1049A000000000000000003C00007E00003C000011
:1049B00000000000000000000000000000000000F7
:1049C00000000000000000000000000000000000E7
:1049D00000000000000003C3E003C3E003C3C00302
:1049E000C3C003C3C003C3C003C1C00000000000B4
:1049F00000000000000000000000000000000000B7
:104A000000000000000000000000000000000000A6
:104A10000000000000000000000000000000000096
:104A20000000000000000000000000000000000086
:104A300000000000000000000000000001E0E001B4
:104A4000C0E001C0E001C0E03FFFFE3FFFFE03C148
:104A5000C00381C00381C00381C07FFFFC7FFFFCD6
:104A60000783800703800703800703800707800010
:104A70000000000000000000000000000000000036
:104A80000000000000000000000000000000000026
:104A9000000000000700000F00000E0001FFF007FB
:104AA000FFF01F0E001E1E001E1C001E1C000FDC4F
:104AB0000007FC0000FF80003FF00038F800387865
:104AC00000783C0070783071F83FFFE01FFF000075
:104AD000E00000E00000E000000000000000000036
:104AE00000000000000000000000000000000000C6
:104AF0000000000000000F800F3FE01E78703C7047
:104B000070707070E07071C03FE3801FC700000ECE
:104B100000001C0000780000F0F001E7FC03CF0E5D
:104B2000078E0E0F0E0E1E0E0E3C07BC7003F80013
:104B30000000000000000000000000000000000075
:104B40000000000000000000000000000000000065
:104B500000000000000000000001FF0007FF800FC0
:104B600003C00F03C00F03C00F0780079F0003FEA1
:104B70000003F0000FF83C3E7C3C3C1F3C780FF8F3
:104B80007807F87C01F03E03F81FFFFC07FE1F00CA
:104B90000000000000000000000000000000000015
:104BA0000000000000000000000000000000000005
:104BB000000000000000003E00003C00003C00003F
:104BC0003C00003C00003C00003C000000000000F5
:104BD00000000000000000000000000000000000D5
:104BE00000000000000000000000000000000000C5
:104BF00000000000000000000000000000000000B5
:104C000000000000000000000000000000000000A4
:104C10000000000000800001C0000780000F0000BD
:104C20001E00003C0000780000F00000E00001E001
:104C30000001E00001C00003C00003C00001C0008B
:104C400001E00001E00000F00000F000007800004A
:104C50003C00001E00000F000007C00001C0000063
:104C60000000000000000000000000000000000044
:104C700000000000000003C00001E00000F00000A0
:104C80007C00003E00001E00000F000007800007AF
:104C9000800003800003C00003C00003C00003C005
:104CA000000380000780000780000F00001E000046
:104CB0003C0000780000F00001E0000380000000EC
:104CC00000000000000000000000000000000000E4
:104CD000000000000000001C00001C000018000F75
:104CE00018F007DBE0007F0000FF0007DBE00E1894
:104CF00070001800001C00001C00000000000000F4
:104D000000000000000000000000000000000000A3
:104D10000000000000000000000000000000000093
:104D20000000000000000000000000000000000083
:104D30000000000000000000000000000000000073
:104D40000000000000003C00003C00003C00003C73
:104D500000003C00003C003FFFFC3FFFFC003C002B
:104D6000003C00003C00003C00003C000000000053
:104D70000000000000000000000000000000000033
:104D80000000000000000000000000000000000023
:104D90000000000000000000000000000000000013
:104DA0000000000000000000000000000000000003
:104DB00000000000000000000000000000000000F3
:104DC000000000007C00007E00007E00003E00002D
:104DD0001E00003C0000F80007E000040000000096
:104DE00000000000000000000000000000000000C3
:104DF00000000000000000000000000000000000B3
:104E000000000000000000000000000000000000A2
:104E10000000000000000003FFE003FFE0000000CE
:104E20000000000000000000000000000000000082
:104E30000000000000000000000000000000000072
:104E40000000000000000000000000000000000062
:104E50000000000000000000000000000000000052
:104E60000000000000000000000000000000000042
:104E70000000000000000000000000000000000032
:104E8000000000007C0000FE0000FE00007E00002C
:104E90000000000000000000000000000000000012
:104EA0000000000000000000000000000000000002
:104EB0000000000000000000780000F00000E000AA
:104EC00001E00003C0000380000780000F00000E17
:104ED00000001E00003C0000380000700000F000E0
:104EE00000E00001C00003C0000780000700000FC1
:104EF00000001E00001C0000000000000000000078
:104F000000000000000000000000000000000000A1
:104F100000000000000000000000000001FFC007CA
:104F2000FFE00F00F01E00781E003C3C00FC3C0738
:104F3000FC3C1FBC3C7C1C3DF03C3FC03C3F003C6B
:104F40001E00381E00780F80F007FFE001FF800090
:104F50000000000000000000000000000000000051
:104F60000000000000000000000000000000000041
:104F7000000000000000000000000000007E0003B0
:104F8000FE001FDE000E1E00001E00001E00001EA0
:104F900000001E00001E00001E00001E00001E007B
:104FA000001E00001E00001E000FFFF80FFFF8009B
:104FB00000000000000000000000000000000000F1
:104FC00000000000000000000000000000000000E1
:104FD00000000000000000000000000003FF800F40
:104FE000FFE00E01F00000F00000F00000F0000013
:104FF000F00001E00003C0000F80003E00007C00D4
:1050000001F00003C0000F80001FFFFC1FFFFC0029
:105010000000000000000000000000000000000090
:105020000000000000000000000000000000000080
:105030000000000000000000000000000FFF800FD3
:10504000FFE00001E00000F00000F00001E00003DC
:10505000C001FF0001FFC00003F0000078000078ED
:105060000000780000780001F00FFFC00FFF000083
:105070000000000000000000000000000000000030
:105080000000000000000000000000000000000020
:10509000000000000000000000000000000FC00041
:1050A0001FC0003FC0007BC000F3C001E3C003C3CA
:1050B000C00783C00F03C01C03C03803C07FFFFEBE
:1050C0007FFFFE0003C00003C00003C00003C00058
:1050D00000000000000000000000000000000000D0
:1050E00000000000000000000000000000000000C0
:1050F0000000000000000000000000000FFFE00FB3
:10510000FFE00F00000F00000F00000F00000F0075
:10511000000FFF800FFFE00000F000007800007833
:105120000000780000F00003E00FFFC00FFE000059
:10513000000000000000000000000000000000006F
:10514000000000000000000000000000000000005F
:10515000000000000000000000000000003FF0011F
:10516000FFF003E0000780000F00001E00001E1F7C
:10517000001FFFE01FC1F81E00781E003C1E003C0F
:105180001E003C0F00780F80F807FFE001FF800051
:10519000000000000000000000000000000000000F
:1051A00000000000000000000000000000000000FF
:1051B0000000000000000000000000001FFFFC1FB6
:1051C000FFFC0000780000F00000E00001E00003B8
:1051D000C0000780000F00000F00001E00003C0010
:1051E00000780000F00001F00001E00003C00000C2
:1051F00000000000000000000000000000000000AF
:10520000000000000000000000000000000000009E
:1052100000000000000000000000000003FFE00F9D
:10522000E3F00F00781E00781E00780F00F007E30F
:10523000E001FF8001FF8007E7E00F00F81E007823
:105240001E003C1E007C1F00F80FFFF003FFC00093
:10525000000000000000000000000000000000004E
:10526000000000000000000000000000000000003E
:1052700000000000000000000000000003FF800F9D
:10528000C7E01E00F01E00783C00783C00783C002F
:10529000381E00780FEFF807FFB80000780000789C
:1052A0000000F00001E0000FC00FFF000FF0000051
:1052B00000000000000000000000000000000000EE
:1052C00000000000000000000000000000000000DE
:1052D00000000000000000000000000000000000CE
:1052E0000000000000000000007E00007E00007E44
:1052F0000000180000000000000000000000000096
:10530000000000003C00007E00007E00003E000027
:10531000000000000000000000000000000000008D
:10532000000000000000000000000000000000007D
:10533000000000000000000000000000000000006D
:105340000000000000000000007E00007E00007EE3
:105350000000180000000000000000000000000035
:10536000000000003E00007E00007F00001F0000E3
:105370001E00001E0000FC0007F0000400000000FA
:10538000000000000000000000000000000000001D
:10539000000000000000000000000000000000000D
:1053A00000000000400001E00007C0001F00007E78
:1053B0000001F80003E0000F80000F800003E00010
:1053C00000F800003E00000F800003E00000E00055
:1053D00000000000000000000000000000000000CD
:1053E00000000000000000000000000000000000BD
:1053F00000000000000000000000000000000000AD
:10540000000000000000000000000000000000009C
:10541000001FFFF80000000000000000001FFFF860
:105420001FFFF80000000000000000000000000066
:10543000000000000000000000000000000000006C
:10544000000000000000000000000000000000005C
:10545000000000000000000000000000000000004C
:10546000000000000007800003E00000F800003E9C
:1054700000000F800003E00000F80001F00007C00A
:10548000001F00007C0001F00007C00003000000C6
:10549000000000000000000000000000000000000C
:1054A00000000000000000000000000000000000FC
:1054B00000000000000001C00001FE00007F80002D
:1054C00007C00001E00000F00000F00001F0000360
:1054D000E0007FC0007E00007000007000007000DF
:1054E00000000000000000F80000F80000F80000D4
:1054F00000000000000000000000000000000000AC
:10550000000000000000000000000000000000009B
:10551000000000000000001F8000FFF003C07807BB
:10552000801C0E000E1C000E3C000F383FC778FF99
:10553000C770E3C771C3C7F3C387E3C387E3878E2D
:10554000E3878EE3CF8EE3FFFC71F9F0700000700B
:1055500000003800003C00000F01C007FFC0000041
:10556000000000000000000000000000000000003B
:10557000000000000000000000000000007E0000AD
:105580007F0000FF0000E78001E78003C3C003C382
:10559000C00781E00781E00F00F00F00F81FFFF85F
:1055A0001FFFFC3C003C3C001E78001EF0000F007A
:1055B00000000000000000000000000000000000EB
:1055C00000000000000000000000000000000000DB
:1055D0000000000000000000000000001FFFC01FCE
:1055E000FFF01E00F01E00781E00781E00F01E0165
:1055F000F01FFFC01FFFE01E01F81E00781E003CD8
:105600001E003C1E00781E00F81FFFE01FFF000078
:10561000000000000000000000000000000000008A
:10562000000000000000000000000000000000007A
:1056300000000000000000000000000000FFF80370
:10564000FFF807C0000F00001E00001E00003C0015
:10565000003C00003C00003C00003C00003E00001C
:105660001E00000F00000FC00803FFF800FFF80045
:10567000000000000000000000000000000000002A
:10568000000000000000000000000000000000001A
:105690000000000000000000000000003FFF003F8D
:1056A000FFE03C01F03C00783C003C3C003C3C000E
:1056B0003C3C001E3C001E3C001E3C003C3C003CB0
:1056C0003C00783C00F83C07E03FFFC03FFC000096
:1056D00000000000000000000000000000000000CA
:1056E00000000000000000000000000000000000BA
:1056F0000000000000000000000000000FFFF00F9D
:10570000FFF00F00000F00000F00000F00000F005F
:10571000000FFFF00FFFF00F00000F00000F000060
:105720000F00000F00000F00000FFFF00FFFF00050
:105730000000000000000000000000000000000069
:105740000000000000000000000000000000000059
:105750000000000000000000000000000FFFF00F3C
:10576000FFF00F00000F00000F00000F00000F00FF
:10577000000FFFF00FFFF00F00000F00000F000000
:105780000F00000F00000F00000F00000F000000CE
:105790000000000000000000000000000000000009
:1057A00000000000000000000000000000000000F9
:1057B00000000000000000000000000000FFFC03EB
:1057C000FFFC0FC0041F00001E00003C00003C0056
:1057D00000780FFC780FFC78003C3C003C3C003C1F
:1057E0003E003C1F003C0FC03C03FFFC00FFF800E4
:1057F00000000000000000000000000000000000A9
:105800000000000000000000000000000000000098
:105810000000000000000000000000003C003C3CD4
:10582000003C3C003C3C003C3C003C3C003C3C0020
:105830003C3FFFFC3FFFFC3C003C3C003C3C003C50
:105840003C003C3C003C3C003C3C003C3C003C0000
:105850000000000000000000000000000000000048
:105860000000000000000000000000000000000038
:105870000000000000000000000000000FFFF80F13
:10588000FFF8003C00003C00003C00003C00003CF5
:1058900000003C00003C00003C00003C00003C00DC
:1058A000003C00003C00003C000FFFF80FFFF80038
:1058B00000000000000000000000000000000000E8
:1058C00000000000000000000000000000000000D8
:1058D0000000000000000000000000000FFFE00FCB
:1058E000FFE00001E00001E00001E00001E0000154
:1058F000E00001E00001E00001E00001E00001E063
:105900000001E00003C00C07C00FFF8007FE00008D
:105910000000000000000000000000000000000087
:105920000000000000000000000000000000000077
:105930000000000000000000000000001E00781EB3
:1059400001F01E03C01E07801E1F001E3C001E78B3
:10595000001EF0001FF0001EF8001E3C001E1E007E
:105960001E0F801E07C01E01E01E00F81E007C00F6
:105970000000000000000000000000000000000027
:105980000000000000000000000000000000000017
:105990000000000000000000000000000780000779
:1059A00080000780000780000780000780000780D4
:1059B0000007800007800007800007800007800044
:1059C00007800007800007800007FFF807FFF80046
:1059D00000000000000000000000000000000000C7
:1059E00000000000000000000000000000000000B7
:1059F0000000000000000000000000003E007C3FAE
:105A000000FC3F81DC3B81DC3BC39C39C39C38E715
:105A10001C38EF1C387E1C387C1E383C1E78001E5B
:105A200078001E78001E78001E78001E78001E0088
:105A30000000000000000000000000000000000066
:105A40000000000000000000000000000000000056
:105A50000000000000000000000000001F003C1FCC
:105A6000803C1FC03C1DC03C1DE03C1CF03C1C7831
:105A70003C1C783C1C3C3C1C1E3C1C0F3C1C0F3C42
:105A80001C07BC1C03FC1C01FC1C00FC1C00FC00D3
:105A90000000000000000000000000000000000006
:105AA00000000000000000000000000000000000F6
:105AB00000000000000000000000000001FFC0071F
:105AC000FFF00F00F81E007C3C003C3C001E7800FC
:105AD0001E78001E78001E78001E78001E3C003CD8
